:100000000C942D000C945A020C945A020C945A022F
:100010000C945A020C945A020C945A020C945A02F0
:100020000C945A020C945A020C945A020C945A02E0
:100030000C945A020C945A020C945A020C945A02D0
:100040000C945A020C945A020C945A020C945A02C0
:100050000C945A0200600063800011241FBECFE59B
:10006000D4E0DEBFCDBFE4E5F0E040E017C0B591DD
:10007000A59135912591059107FD0CC0959185912C
:10008000EF01F92FE82F05900D92A217B307D9F7CA
:10009000FE0104C01D92A217B307E1F7E935F4078A
:0E00A00031F70E94F3000C940F02F894FFCF8A
:0D00AE00543A3235B04320483A3630250030
:1000BC008FEF8ABB1BBA8FE295E70197F1F700C06F
:1000CC00000083E00E9468018FE39FE10197F1F744
:1000DC0000C0000083E00E94680187EC90E001976B
:1000EC00F1F700C0000083E00E9468018FEC97E0FC
:1000FC000197F1F700C0000082E00E9468018FECCC
:10010C0097E00197F1F700C0000060E088E20E94E0
:10011C007F018FEC97E00197F1F700C0000060E0E1
:10012C008CE00E947F018FEC97E00197F1F700C003
:10013C00000060E086E00E947F018FEC97E0019761
:08014C00F1F700C00000089566
:100154000E9454020E94490280ED0E942D0280E018
:100164000E942D020E9457020E94490281ED0E94C2
:100174002D020E943402809362000E943402809314
:1001840061000E943B02809360000E9457028091AC
:1001940062000E94040280936200809161000E94C8
:1001A400040280936100809160000E9404028093A5
:1001B400600060E070E080E00E94240280916000B2
:1001C4000E944D018AE30E941A02809161000E94FC
:1001D4004D018AE30E941A02809162000E944D013F
:0201E40008957C
:1001E600CF93DF93CDB7DEB72D970FB6F894DEBF6A
:1001F6000FBECDBF0E945E0068E070E088EB9BE01A
:100206000E9494010E94DD0182E390E00E94EA01CF
:10021600BC010E944F020E9442028AE090E00E94C6
:10022600EA018CBF2EEA30E040E08DE0F901DE0104
:100236001196742F0E94F70161E070E080E00E9441
:100246002402CE0101960E94D0010E94AA00FDCF91
:10025600A1E21A2EAA1BBB1BFD010DC0AA1FBB1FC4
:10026600EE1FFF1FA217B307E407F50720F0A21B36
:10027600B30BE40BF50B661F771F881F991F1A94A3
:1002860069F760957095809590959B01AC01BD01CD
:04029600CF010895F7
:10029A00CF93DF93D82FCDEC8C9FC12D1124C69517
:1002AA00C695C69580E38C0F0E941A02CC0F8C2F3C
:1002BA00880F880FC80F8D2F8C1B805D0E941A0231
:0602CA00DF91CF910895C1
:1002D0008295807F9BB398609BBB95E89A95F1F7D8
:1002E00000009BB39F709BBB9BB3892B8BBB8BB3D5
:0E02F000877F8BBB85E88A95F1F700000895A3
:1002FE00CF93C82F611104C08BB38B7F8BBB03C010
:10030E008BB384608BBB8C2F82958F700E9468019B
:0A031E008C2F0E946801CF91089512
:100328009C01629FC001639F900D729F900D1124E4
:100338009C0140E050E060E072E18AE790E00E94B2
:080348002B01C9010197089582
:1003500097FB072E16F4009407D077FD09D00E9472
:10036000BC0107FC05D03EF4909581959F4F089500
:08037000709561957F4F08951F
:10037800AA1BBB1B51E107C0AA1FBB1FA617B707C3
:1003880010F0A61BB70B881F991F5A95A9F78095DF
:080398009095BC01CD01089510
:1003A000CF93DF93EC0103C021960E941A0288814B
:0A03B0008111FACFDF91CF9108957B
:1003BA009C0191B3906391BB1DBC1CBC82EA8FBDAA
:0A03CA008AE18EBD37BD26BD0895FF
:1003D4002FEFAC01249FC001259F900D112464E6EA
:0A03E40070E00E94A801CB0108950B
:1003EE00992777FD05C005900D920197E1F70895C5
:0A03FE0001900D920197E1F70895B8
:10040800982F92959F70990F292F220F220F920FE4
:060418008F70890F0895AA
:10041E00EC010E945F020E945E02CE010E94600209
:06042E00CE010E945C02F9
:1004340061E00E947F018FE19EE40197F1F700C023
:040444000000089517
:1004480090E4699F800D112460E080680E947F011C
:02045800089505
:0E045A0083B984E886BF06B607FEFDCF08957D
:0E04680084EC86BF06B607FEFDCF83B1089573
:0E04760084E886BF06B607FEFDCF83B1089569
:0E04840087B3886087BB12BE8BE683BF0895E6
:0C04920084EA86BF06B607FEFDCF089581
:0A049E009BBD8ABD79BD68BD0895BD
:0604A80080E280B9089516
:0604AE0084E986BF0895F9
:0404B4000C940000A4
:0404B8000E94550049
:0204BC000895A1
:0204BE0008959F
:0204C00008959D
:00000001FF
