:100000000C942D000C94A40D0C9490100C94901052
:100010000C9490100C9490100C9490100C949010E0
:100020000C9490100C9490100C9490100C94660FFB
:100030000C9490100C9490100C9490100C949010C0
:100040000C9490100C9490100C9490100C94CC0D77
:100050000C94901000600090800011241FBECFE52A
:10006000D4E0DEBFCDBFE4E5F0E040E017C0B591DD
:10007000A59135912591059107FD0CC0959185912C
:10008000EF01F92FE82F05900D92A217B307D9F7CA
:10009000FE0104C01D92A217B307E1F7E935F4078A
:0E00A00031F70E94C3050C940910F894FFCFAD
:1000AE0068076C094C836A9074A07AC000806888D7
:0600BE0000846C82008149
:1000C40025642025640045525220256420256400BF
:0700D400286E756C6C290019
:0600DB00286E696C29008B
:0300E10025640093
:1000E400A3EAB0E0E8E7F0E00C94510E4C015901AA
:1000F400C756DF4F488359836A83C959D040212C9E
:10010400312C6E012BE8C20ED11C85E2782E26011B
:1001140030E8632ECE018D569F4FC456DF4F99832E
:100124008883CC59D0409C0140E8CF55DF4F2883C9
:1001340039834A83C15AD040C756DF4F4881C959D1
:10014400D040C656DF4F5881CA59D040C556DF4FFC
:100154006881CB59D040FA01849167FD808188235E
:1001640009F4C9C3CF57DF4F19821882C158D04050
:100174008FEF9FEFCD57DF4F99838883C358D040CB
:10018400CB57DF4F19821882C558D040A1E0B0E0A8
:10019400AC0FBD1FC957DF4FB983A883C758D040E0
:1001A400E0E8F0E0C757DF4FF983E883C958D0404F
:1001B400CA01A62FE12CF12CFC012491A7FD20817A
:1001C40021111BC0E114F10401F19701C4010E9443
:1001D400700DC756DF4F88819981AA81C959D040D3
:1001E4008E0D9F1DA11DF7FCAA95C756DF4F88836E
:1001F4009983AA83C959D04008C00196A11D25320C
:1002040009F3FFEFEF1AFF0AD7CFC756DF4F8881F4
:100214009981AA81C959D040FC012491A7FD20816C
:10022400253209F056C39C014A2F2F5F3F4F4F4F91
:10023400C256DF4F288339834A83CE59D040C756EC
:10024400DF4F288339834A83C959D040C756DF4FCB
:1002540088819981AA81C959D040FC012491A7FDC4
:1002640020812B3241F4CF57DF4F28813981C15887
:10027400D04024600BC02C32CCF02D3259F5CF572E
:10028400DF4F28813981C158D0402160CF57DF4FDB
:1002940039832883C158D0400196A11DC756DF4F2A
:1002A40088839983AA83C959D040D0CF203241F49E
:1002B400CF57DF4F28813981C158D0402860E6CF1D
:1002C400233291F4CF57DF4F28813981C158D04070
:1002D4002061DCCF203341F4CF57DF4F28813981AF
:1002E400C158D0402260D2CF2A3299F50196A11D7F
:1002F400C756DF4F88839983AA83C959D040D50153
:10030400ED91FC911197CF0102968D939C9380817E
:100314009181CB57DF4F99838883C558D04097FF8D
:100324003EC0CF57DF4F28813981C158D040B1E05A
:100334002B27CF57DF4F39832883C158D04091955D
:1003440081959109CB57DF4F99838883C558D04055
:1003540026C0BC018A2F0E94280DCB57DF4F9983FA
:100364008883C558D040C756DF4F288139814A81D8
:10037400C959D040F901849147FD8081082E000CB1
:10038400990BC0970A9758F42F5F3F4F4F4FC756AA
:10039400DF4F288339834A83C959D040E4CFCF57EC
:1003A400DF4F88819981C158D04080FF07C08D7F7D
:1003B400CF57DF4F99838883C158D040C756DF4F4A
:1003C40088819981AA81C959D040FC012491A7FD53
:1003D40020812E3209F058C0CD57DF4F1982188280
:1003E400C358D0409C014A2F2F5F3F4F4F4FC756F1
:1003F400DF4F288339834A83C959D040F901549186
:1004040047FD50815A32D1F40296A11DC756DF4FE1
:1004140088839983AA83C959D040D501ED91FC9171
:100424001197CF0102968D939C9380819181CD5732
:10043400DF4F99838883C358D04026C0842FB901E5
:100444000E94280DCD57DF4F99838883C358D0402D
:10045400C756DF4F288139814A81C959D040F901F3
:10046400849147FD8081082E000C990BC0970A9750
:1004740058F42F5F3F4F4F4FC756DF4F28833983C0
:100484004A83C959D040E4CFCE0187569F4F0E947A
:10049400440C182FC756DF4F2881C959D040C6567F
:1004A400DF4F8881CA59D040C556DF4F9881CB5958
:1004B400D040E22FF82F849197FD8081082E000C04
:1004C400990B0E9454108936910509F45AC0B4F46A
:1004D4008336910509F466C144F48532910509F423
:1004E400A1C18136910529F1B3C18436910509F47E
:1004F40048C0883691050CF42DC1AAC180379105F6
:1005040009F4CBC04CF48E36910509F419C18F3629
:10051400910509F47CC09CC18537910509F454C048
:100524008837910509F496C08337910509F090C185
:1005340058C1612F70E0A501C6010E94130E892BDA
:1005440009F4B7C1C756DF4F88819981AA81C95977
:10055400D0409C014A2F2F5F3F4F4F4FC756DF4F6C
:10056400288339834A83C959D040FC012491A7FDCB
:100574002081A601BE016F577F4FC4010E948D10D8
:1005840095C1612F70E0950141E050E0C6010E94E1
:100594008607892B09F48DC1C756DF4F888199815D
:1005A400AA81C959D0400196A11DC756DF4F88833F
:1005B4009983AA83C959D040A601BE016F577F4FC2
:1005C400C4010E94C70672C1612F70E0950140E02A
:1005D40050E0C6010E948607892B09F46AC1C756F8
:1005E400DF4F88819981AA81C959D0400196A11D04
:1005F400C756DF4F88839983AA83C959D040A6017F
:10060400BE016F577F4FC4010E94A60A4FC1612FDC
:1006140070E0950140E050E0C6010E948607892BF6
:1006240009F447C1C756DF4F88819981AA81C95906
:10063400D0400196A11DC756DF4F88839983AA83B2
:10064400C959D040A601BE016F577F4FC4010E9413
:10065400D7092CC1612F70E0950140E050E0C6013C
:100664000E948607892B09F424C1C756DF4F88816D
:100674009981AA81C959D0409C014A2F2F5F3F4FCD
:100684004F4FC756DF4F288339834A83C959D04017
:10069400FC012491A7FD20814BC0950140E050E06E
:1006A40060EF70E0C6010E948607892B09F401C13E
:1006B400C756DF4F88819981AA81C959D0400196D4
:1006C400A11DC756DF4F88839983AA83C959D04097
:1006D40086E02BED30E040E0F901DE01AD56BF4F7E
:1006E400742F0E94CD0FD6012C9111963C91119735
:1006F40012964C91129713965C91139714966C91E1
:10070400149715967C91159716968C9116971796B3
:100714009C91A0E00E94F20F51F400E010E0CF554C
:10072400DF4F288139814A81C15AD040B9C028E7B6
:10073400A601BE016F577F4FC4010E948304B6C057
:10074400612F70E09501A1014E0D5F1DC6010E944D
:100754006B09AFC0612F70E0A501C6010E94130EA2
:10076400892B09F4A6C0C756DF4F88819981AA81D5
:10077400C959D0409C014A2F2F5F3F4F4F4FC75656
:10078400DF4F288339834A83C959D040FC0124911F
:10079400A7FD2081A601BE016F577F4FC4010E94AF
:1007A4008D1084C0103809F084C0C756DF4F88818B
:1007B4009981AA81C959D0400196A11DC756DF4F1E
:1007C40088839983AA83C959D040D501ED91FC91BE
:1007D4001197CF0102968D939C938081F6018083BB
:1007E4005BC0103809F065C0C756DF4F8881998116
:1007F400AA81C959D0400196A11DC756DF4F8883ED
:100804009983AA83C959D040D501ED91FC911197E0
:10081400CF0103968D939C9320813181428100E026
:1008240010E03EC0103809F044C0C756DF4F88813D
:100834009981AA81C959D0400196A11DC756DF4F9D
:1008440088839983AA83C959D040F601708224C051
:10085400D6017C92C256DF4F288139814A81CE5914
:10086400D040C756DF4F288339834A83C959D040C3
:10087400CF57DF4F19821882C158D040CB57DF4F72
:1008840019821882C558D0408FEF9FEFCD57DF4FA4
:1008940099838883C358D04001E010E0462D92012B
:1008A400BE016F577F4FC4010E94410A8E0D9F1DE8
:1008B40011C0C756DF4F88819981AA81C959D04098
:1008C4000196A11DC756DF4F88839983AA83C9590E
:1008D400D040C7017101E80EF91EE214F3044CF490
:1008E4008FE490E090938500809384008FEF9FEFD6
:1008F40003C0170121CCC101CD55DF4FE2E10C94B7
:02090400880E5B
:10090600A4E1B0E0E9E8F4E00C94510E98878F83F7
:100916007A8369835C8B4B8B122FDB011296ED91E8
:10092600FC91139714962D913C9115973E832D8338
:10093600ED90FC90119716962D903C901797F7FD29
:1009460003C0E894E1F802C0E1E0F0E0C70180717D
:1009560099279A878987E4FE1FC0AB89BC892C91A9
:1009660011963C91119712964C91129713965C91A1
:10097600139714966C91149715967C911597169665
:100986008C91169717969C91A0E00E94F20F21F089
:100996008D819E81029702C08D819E81970128706C
:1009A60033273C872B87E3FC0197AB89BC894C90A6
:1009B60011965C90119712966C90129713967C90F4
:1009C600139714968C90149715969C9015971696D7
:1009D600AC9016971796BC90A981BA811896CD90BF
:1009E600DC901997B1E0CB1AD108D101AC0DBD1D31
:1009F6001C929C838B839F01281B390B3E872D8776
:100A0600C70182709927988B8F87812F012E000C42
:100A1600990BDC01A154B109BA8BA98B32E0C3163C
:100A2600D10434F489859A85892B09F04CC073C0AA
:100A36009201A301B401C501A0E00E94F20F81F169
:100A4600B1E0CB1AD108C2018F7099278A3091057F
:100A560014F4C09602C0895A9F4FE989FA897A9799
:100A660048F49C012062215631092A31310510F4DF
:100A76000E944310F101EC0DFD1D80832B813C810A
:100A8600215031093C832B839201A301B401C50196
:100A960004E00E94350E29013A014B015C01BECFEC
:100AA6008D859E85AB81BC818A0F9B1F1816190602
:100AB6003CF21A161B060CF0B5CFEF85F889EF2B22
:100AC60009F0BECFAFCFAB89BC892C9111963C9172
:100AD600119712964C91129713965C911397149650
:100AE6006C91149715967C91159716968C9116977E
:100AF60017969C91A0E00E94F20F69F0F101EC0DAF
:100B0600FD1D31971083B2E0CB1AD108F101EC0D2F
:100B1600FD1D80E38083EB85FC85EF2B41F0F1E042
:100B2600CF1AD108F101EC0DFD1D80E28083A98169
:100B3600BA8118962D913C911997215031092C199B
:100B46003D09C20CD31CA60160E80D811E818F8170
:100B560098850E94E4089C01EF81F8858081918147
:100B660090FF09C0A981BA8112968D919C91139725
:100B7600821793070CF4C9016496E2E10C94880E7F
:100B8600CF93DF93CDB7DEB768970FB6F894DEBF85
:100B96000FBECDBF78940E944C100E94930C87E63E
:100BA60090E00E94DA0F81E490E00E94831083E0D7
:100BB60085BF8BB780648BBF68E070E088EB9BE0F5
:100BC6000E94170F0E94B30F82E390E00E94C00FAD
:100BD600BC010E947E100E9471108AE090E00E9483
:100BE600C00F8CBF81B3806481BB80E390E39A8B96
:100BF600898B8FE29EE69C8B8B8B412C512C32018C
:100C0600812C912C5401C12CD12C76011D8A1E8A6F
:100C16001F8A188E80918A0090918B00A0918C007B
:100C2600B0918D0088199909AA09BB09843F9140A2
:100C3600A105B10550F060E070E080E090E00E9410
:100C4600F40B0E9431104B015C0180918A00909157
:100C56008B00A0918C00B0918D008C199D09AE0976
:100C6600BF09883B9B40A105B10588F0CE010196DE
:100C76000E94FE0A61E070E080E00E942810CE012A
:100C860001960E94A60F0E9431106B017C01809193
:100C96008F00882351F080916300813731F492B33D
:100CA60080E4892782BB10928F0080918600909104
:100CB6008700A0918800B0918900481659066A06F7
:100CC6007B0671F160E070E08CE00E942810809154
:100CD600860090918700A0918800B0918900BF930B
:100CE600AF939F938F9381EE90E0A0E0AF939F9395
:100CF6008F938E010F5E1F4F1F930F930E94530F0A
:100D0600C8010E94A60F4090860050908700609010
:100D16008800709089000FB6F894DEBF0FBECDBF75
:100D260080918E00882309F475CF60E070E08BE037
:100D36000E94281087E40E941E1080918A009091DC
:100D46008B00A0918C00B0918D002D893E894F8932
:100D5600588D821B930BA40BB50B843F9140A105C4
:100D6600B10508F457CF60E070E08BE00E942810D0
:100D760080E20E941E1010928E000E9431106D8B30
:080D86007E8B8F8B988F46CF06
:100D8E00ADE0B0E0EDECF6E00C94510E9A87898759
:100D9E007C836B83FA01DB011296CD90DC90139766
:100DAE0014968D919C9115979E838D83ED90FC905A
:100DBE001197FA82E98216960D90BC91A02DB887F4
:100DCE00AF8320803180428053806480758086801E
:100DDE0097808101B42DF52DE62D7B868C869D8620
:100DEE009101A201B301C401A0E00E94F20F4CF4E4
:100DFE000E94880F8901B42FF52FE62F7B878C87F1
:100E0E009D87D7FC04C0E894E1F8FA82E98291014B
:100E1E00A201B301C401A0E0ED80FE800E94F20F9A
:100E2E001CF0898182FF04C081E0E81AF10805C038
:100E3E0083FF03C091E0E91AF108CE0101965C012F
:100E4E008AE0C82ED12C2B2F3F2F4E2F5B856C8521
:100E5E007D858B819C810E943F08FC019101A2013E
:100E6E00B301C401A0E00E94F20F1CF0898182FF41
:100E7E0012C031970F8118850E0F1F1F9101A2010D
:100E8E00B301C401A0E00E94F20F14F08BE201C086
:100E9E008DE2D80108C083FF07C03197AF81B885B6
:100EAE00AE0FBF1F80E28C93E980FA80AB81BC81CC
:100EBE0018962D913C911997215031092E1B3F0BFD
:100ECE008F819885E80FF91FAF0160E80D811E81B3
:100EDE0089859A850E94E4089C01A985BA858D9121
:100EEE009C9190FF07C0EB81FC81828193818217D8
:0E0EFE0093070CF4C9012D96E2E10C94880EC6
:100F0C000F931F93CF93DF93FC01D90168387105C0
:100F1C0031F194F461387105B1F12CF4603871053C
:100F2C0009F478C09FC06238710509F459C064385F
:100F3C00710509F46FC096C0603A710509F448C098
:100F4C002CF46039710509F44BC08CC0603C710500
:100F5C0009F476C0603F710509F472C083C0CD916D
:100F6C00DC911197CE0102968D939C93452B39F011
:100F7C009881892F880F880B908381835BC088812F
:100F8C008083118268C0CD91DC911197CE010496BB
:100F9C008D939C93452B99F088819981AA81BB8173
:100FAC00AC01BD01770F440B542FBA0180839183A0
:100FBC00A283B383448345834683478328C0088137
:100FCC0019812A813B81008311832283338345C09D
:100FDC00CD91DC911197CE0102968D939C9323C0F9
:100FEC00CD91DC911197CE0108968D939C937881CD
:100FFC0069815A814B813C812D819E818F817083C7
:10100C00618352834383348325839683878381E072
:10101C0090E02AC0CD91DC911197CE0102968D9370
:10102C009C93452BA1F099812881892F880F880BDF
:10103C002083918382838383848385838683E6CF15
:10104C00CD91DC911197CE0102968D939C930881E2
:10105C0019810083118312821382148215821682E5
:10106C001782D5CF80E090E0DF91CF911F910F9147
:02107C000895D5
:10107E00A2E1B0E0E5E4F8E00C94510EFC010A8B1D
:10108E001B832C83732E642E552E462E7D83CC8689
:10109E00D886BF82AE82868197819B878A87D5014B
:1010AE004D915C91228133818085918501971C0140
:1010BE0037FF02C021E030E0EA85FB85E80FF91F1B
:1010CE0010824701E1E0F0E0FA83E983C9018E194D
:1010DE009F099E878D87DA01A270BB27B88BAF87D9
:1010EE00B885BB0FBB0BB98B1214130474F0A98116
:1010FE00BA81AB2B09F05CC0AE81BF818D919C9102
:10110E0011978F7E8D939C9353C02A893B814C817E
:10111E00572D662D752D842D9D81A0E00E94F20F16
:10112E00B1F1E1E02E1A3108FC85F987AF2EB884B3
:10113E00C988DC2CEC2CFC2C0C2D1C2D2A893B8117
:10114E004C81572D662D752D842D9D810E94980FF3
:10115E00C90129839A83EA85FB85E20DF31D805D23
:10116E00808381E0881A91082A893B814C81572D12
:10117E00662D752D842D9D810E949A0F2A8B3B839F
:10118E004C83752E662E572E482E9D83ADCF8D85A2
:10119E009E85880D991D181619061CF2181419042F
:1011AE000CF0A5CFEF85F889EF2B09F0BACF9FCFC2
:0A11BE00C1016296E2E10C94880E74
:1011C8002F923F924F926F927F928F92AF92BF92DF
:1011D800CF92DF92EF92FF920F931F93CF93DF93FB
:1011E800CDB7DEB766970FB6F894DEBF0FBECDBF9A
:1011F8005C013A01862E6901C701817099279C8B91
:101208008B8BE0FC1DC020173107D4F47801EC1853
:10121800FD08FE8AED8AA70191E1E916F10410F0B4
:1012280040E150E060E270E0CE0101969A8B898B34
:101238000E943A1089899A891C0120E8422E0BC025
:101248009601682DA301C5010E94700DC016D10634
:10125800ECF2C60125C090E1E916F10458F020E14E
:1012680030E0642DA101C5010E94700D80E1E81AEB
:10127800F108F1CF2D893E892F70332789899A8902
:10128800AC0160E8C5010E94700D8B899C89892B8F
:1012980031F49601682DA301C5010E94700DC801A3
:1012A80066960FB6F894DEBF0FBECDBFDF91CF9123
:1012B8001F910F91FF90EF90DF90CF90BF90AF906C
:0E12C8008F907F906F904F903F902F900895E1
:1012D600CF93DF93DC01F90164387105D9F164F429
:1012E6006138710521F16238710509F440C0603832
:1012F600710509F054C02EC060397105C1F184F43E
:101306006838710509F04BC0C081D181CE010296C3
:1013160091838083E881F981ED93FC9340833CC0FF
:10132600603A7105B9F0603C7105A1F038C0C08122
:10133600D181CE01029691838083E881F981ED9374
:10134600FC93052E000C660B770B4083518362835A
:10135600738322C0C081D181CE010296918380839E
:10136600E881F981ED93FC935183408315C0C081D8
:10137600D181CE01029691838083E881F981ED9334
:10138600FC9351834083852F880F880B8283838348
:10139600848385838683878381E090E002C080E032
:0813A60090E0DF91CF91089562
:1013AE00A2E0B0E0EDEDF9E00C94510E1C014B0102
:1013BE00FA01DB0112962D913C91139714964D90E4
:1013CE005C9015978D919C9111979A8389831696AF
:1013DE006D907C90179737FD03C08D7F9A8389831C
:1013EE00008111812281338144815581668177810B
:1013FE00FE0131965F0188E0C82ED12C7201C40126
:10140E000E943F08298124FF06C00197F301E80FCF
:10141E00F91F20E32083298123FF06C00197F301E2
:10142E00E80FF91F20E22083E980FA80D401189694
:10143E002D913C91199721503109281B390B860D9E
:10144E00971DAC0160E88201C1010E94E4089C0175
:10145E00F1018081918190FF08C0D40112968D9187
:10146E009C911397821793070CF4C9012296E2E11F
:04147E000C94880E34
:101482002F923F924F926F927F928F92AF92BF9222
:10149200CF92DF92EF92FF920F931F93CF93DF933E
:1014A200CDB7DEB727970FB6F894DEBF0FBECDBF1C
:1014B2006C017B013901842E980184ED282E80E095
:1014C200382E80E0482E87E0F101AE014F5F5F4F7A
:1014D200DA01742D0E94CD0FF70102811381A480DD
:1014E200B580E080F18061147104810419F43A013D
:1014F200F0E88F2E2115310529F4882DB3010E94C1
:10150200EC0E9C0117FD04C00217130708F49801A2
:101512008501682DA301C6010E94E40827960FB633
:10152200F894DEBF0FBECDBFDF91CF911F910F9117
:10153200FF90EF90DF90CF90BF90AF908F907F9011
:0A1542006F904F903F902F90089596
:10154C00A2E0B0E0ECEAFAE00C94510E3C014B0145
:10155C00FA01DB0112962D913C91139714964D9044
:10156C005C9015978D919C9111979A83898316960F
:10157C002D903C90179737FD03C08D7F9A838983FC
:10158C00008111812281338144815581668177816B
:10159C00FE0131965F018AE0C82ED12C7201C40184
:1015AC000E943F08E980FA80D40118962D913C9155
:1015BC00199721503109281B390B820D931DAC0151
:1015CC0060E88201C3010E94E4089C01F301808160
:1015DC00918190FF08C0D40112968D919C91139724
:1015EC00821793070CF4C9012296E2E10C94880E41
:1015FC00EF92FF920F931F93CF93DF93F82EE92E68
:10160C000E94780F0E9414100E94A30E182F0E94A3
:10161C00A30EC82F0E94A30E082F0E94A30ED82F32
:10162C000E94A30EC10FC00FCD0F8C1317C01F92B9
:10163C000F931F921F9384EC90E0A0E0AF939F93C5
:10164C008F93EF92FF920E94530F8DB79EB709961E
:10165C000FB6F8949EBF0FBE8DBF16C01F920F938E
:10166C001F921F938AEC90E0A0E0AF939F938F930F
:10167C00EF92FF920E94530F8DB79EB709960FB64B
:10168C00F8949EBF0FBE8DBFDF91CF911F910F912C
:06169C00FF90EF9008959D
:1016A2006F927F928F92EF92FF920F931F93CF933D
:1016B200DF93CDB7DEB761970FB6F894DEBF0FBEEA
:1016C200CDBFFE01319651E1DF011D925A95E9F736
:1016D200A2E0B1E0BA83A9839C838B8377FF09C020
:1016E2008FE490E090938500809384008FEF9FEFCA
:1016F20019C03901842E7C01615071097F836E8388
:101702009801682DA301CF010E94BD0E488559851D
:101712002E813F814217530708F49A01F701E20F25
:10172200F31F108261960FB6F894DEBF0FBECDBFD5
:10173200DF91CF911F910F91FF90EF908F907F904B
:041742006F90089507
:1017460088249924F401E401B0E49F93AA279A150A
:101756008B049C04ED05FE05CF05D007A10798F480
:10176600AD2FDC2FCF2FFE2FE92D982C892E982F09
:10177600872F762F652F542F432F322F2227B850CD
:1017860031F7BF9127C01B2EBF91BB27220F331FF6
:10179600441F551F661F771F881F991F881C991C99
:1017A600EE1FFF1FCC1FDD1FAA1FBB1F8A149B0441
:1017B600EC05FD05CE05DF05A007B10748F08A1840
:1017C6009B08EC09FD09CE09DF09A00BB10B2160CE
:1017D6001A94E1F62EF49401AF01BE01CD01000C7E
:0217E600089564
:1017E8000F931F93CF93C82F8B010E9487100E94DD
:1017F800781080ED0E945C1080E00E945C100E94CE
:101808008A100E94781081ED0E945C100E9463107B
:10181800809362000E946310809361000E946A10A6
:10182800809360000E948A10809162000E94FE0FDF
:1018380080936200809161000E94FE0F8093610096
:10184800809160000E94FE0F80936000B8018C2F89
:101858000E942810809160000E946D0E8AE30E9409
:101868001E10809161000E946D0E8AE30E941E1076
:10187800809162000E946D0ECF911F910F91089583
:10188800CF92DF92EF92DC0190E0292F30E0220F17
:10189800331F6901032E000CEE086E2DA601425578
:1018A8005F4F6F4F6A01E62EFA018491E7FC808151
:1018B80081110DC02F5F3F4F032E000C440B2255A2
:1018C8003F4F4F4FF901849147FD808124C0CD904F
:1018D800DD90EC901297F6014491E7FC4081841367
:1018E80015C02F5F3F4F032E000C440B22553F4F6E
:1018F8004F4FF901949147FD90815FEFC51AD50AC2
:10190800E50ACD92DD92EC92129701C09F5F9B3061
:0E19180008F4BBCF892FEF90DF90CF90089599
:101926008FEF8ABB1BBA8FE295E70197F1F700C0EC
:10193600000083E00E94D50E8FE39FE10197F1F747
:1019460000C0000083E00E94D50E87EC90E001976E
:10195600F1F700C0000083E00E94D50E8FEC97E0FF
:101966000197F1F700C0000082E00E94D50E8FECCF
:1019760097E00197F1F700C0000060E088E20E945E
:10198600020F8FEC97E00197F1F700C0000060E0CE
:101996008CE00E94020F8FEC97E00197F1F700C0F0
:1019A600000060E086E00E94020F8FEC97E001974E
:0819B600F1F700C000000895E4
:1019BE000F931F93CF93DF93DB012D913C911197E2
:1019CE0030FF25C017964D915C91189715962D9165
:1019DE003C9116974217530778F41296ED91FC91AD
:1019EE001397808312962D913C9113972F5F3F4F43
:1019FE0013963C932E93129717962D913C91189710
:101A0E002F5F3F4F18963C932E93179715C01D9638
:101A1E00ED91FC911E97309719F48FEF9FEF0CC04C
:101A2E008B01EC010995892BC1F7F801878190850F
:101A3E00019690878783CE01DF91CF911F910F91F1
:021A4E000895F9
:101A5000CF939B01482FF901849147FD808180320B
:101A6000C9F1682F082E000C770B69507109653099
:101A7000710580F18B3249F5A0E0B0E02F5F3F4F58
:101A80004F4F02C0A0E0B0E080E090E0CAE0F90172
:101A9000649147FD6081062E000C770B605371093D
:101AA0006A30710560F4C89FF001C99FF00D1124E0
:101AB0002F5F3F4F4F4FCF01861B970BE8CFAB2BCC
:101AC00069F491958195910909C08D32D9F6A1E00B
:101AD000B0E0D4CF2F5F3F4F4F4FBDCFCF91089590
:101AE0006F927F928F92CF92DF92EF920F931F931C
:101AF000CF93DF938C016A01E62EE9013A01862E2D
:101B0000620E731E811C37FD8A94C614D704E80444
:101B100079F0F6018491E7FC8081B801082E000C71
:101B2000990B0E94DF0C8FEFC81AD80AE80AEDCF94
:101B3000CE01DF91CF911F910F91EF90DF90CF9069
:081B40008F907F906F900895D3
:101B48001F920F920FB60F9211248F939F93AF930A
:101B5800BF938091860090918700A0918800B091F2
:101B680089000196A11DB11D80938600909387007E
:101B7800A0938800B093890081E080938E00BF9184
:101B8800AF919F918F910F900FBE0F901F90189556
:101B98001F920F920FB60F9211248F939F93AF93BA
:101BA800BF9380918A0090918B00A0918C00B09196
:101BB8008D000196A11DB11D80938A0090938B0022
:101BC800A0938C00B0938D00BF91AF919F918F919E
:0A1BD8000F900FBE0F901F9018959C
:101BE200A1E21A2EAA1BBB1BFD010DC0AA1FBB1F1F
:101BF200EE1FFF1FA217B307E407F50720F0A21B91
:101C0200B30BE40BF50B661F771F881F991F1A94FD
:101C120069F760957095809590959B01AC01BD0127
:041C2200CF01089551
:101C2600FA0160387105CCF0623871051CF0633832
:101C3600710599F4A081B1819D012C5F3F4F3183DD
:101C460020834D915D916D917C91FC014083518380
:101C56006283738381E090E0089580E090E00895C8
:101C660097FB10F8169400080F93083098F0085068
:101C7600232F342F452F562F672F782F892F902DFE
:101C8600F4CF0594979587957795679557954795DA
:0C1C9600379527950A95AAF70F9108953D
:101CA2002F923F924F925F926F927F928F929F926A
:101CB200AF92BF92CF92DF92EF92FF920F931F9358
:101CC200CF93DF93CDB7DEB7CA1BDB0B0FB6F89409
:081CD200DEBF0FBECDBF099477
:101CDA00CF93DF93D82FCDEC8C9FC12D1124C695BD
:101CEA00C695C69580E38C0F0E941E10CC0F8C2FD0
:101CFA00880F880FC80F8D2F8C1B805D0E941E10C5
:061D0A00DF91CF91089566
:101D10002A88398848885F846E847D848C849B847B
:101D2000AA84B984C884DF80EE80FD800C811B8189
:101D3000AA81B981CE0FD11D0FB6F894DEBF0FBEB8
:061D4000CDBFED01089586
:101D4600F89420E030E080E010C0879BFECF95E855
:101D56009A95F1F70000879B05C090E0880F991FC0
:101D6600816001C0880F2F5F3F4F283031056CF32B
:041D760078940895C0
:101D7A00A2E0B0E0E3ECFEE00C945F0E8C013A8343
:101D8A0029839E012F5F3F4F0E947200F801208134
:101D9A0024FF02C08FEF9FEF2296E4E00C94960E88
:101DAA008295807F9BB398609BBB95E89A95F1F7E3
:101DBA0000009BB39F709BBB9BB3892B8BBB8BB3E0
:0E1DCA00877F8BBB85E88A95F1F700000895AE
:101DD800CF92DF92EF926B01E82EA82FCB01FC0186
:101DE8002491A7FD2081222319F00196A11DF7CF88
:0C1DF8008C199D09EF90DF90CF900895AA
:101E0400CF93C82F611104C08BB38B7F8BBB03C0EE
:101E14008BB384608BBB8C2F82958F700E94D50E00
:0A1E24008C2F0E94D50ECF91089577
:101E2E009C01629FC001639F900D729F900D1124C3
:101E3E009C0140E050E060E072E18AE790E00E9491
:081E4E00F10DC901019708958F
:101E560097FB072E16F4009407D077FD09D00E9451
:101E66003F0F07FC05D03EF4909581959F4F08954E
:081E7600709561957F4F0895FE
:101E7E00AA1BBB1B51E107C0AA1FBB1FA617B707A2
:101E8E0010F0A61BB70B881F991F5A95A9F78095BE
:081E9E009095BC01CD010895EF
:101EA600A0E0B0E0E9E5FFE00C94610E9E01265F3C
:101EB6003F4F4F81588569858D819E810E94E60F2F
:061EC600E2E00C94980E0E
:101ECC001F920F920FB60F9211248F938CB18093A7
:101EDC00630081E080938F008F910F900FBE0F9065
:041EEC001F90189596
:101EF00081B3806881BB82B38F7782BB8FE39CE91B
:101F00000197F1F700C0000082B3806882BB08959A
:101F10006095709580959095309540955095219558
:101F20003F4F4F4F5F4F6F4F7F4F8F4F9F4F0895E2
:101F3000689401C0E8948F929F92CF93DF930E94A0
:0C1F4000A30BDF91CF919F908F9008952C
:101F4C00CF93DF93EC0103C021960E941E10888171
:0A1F5C008111FACFDF91CF910895B3
:101F66009C0191B3906391BB1DBC1CBC82EA8FBDE2
:0A1F76008AE18EBD37BD26BD089537
:101F80002FEFAC01249FC001259F900D112464E622
:0A1F900070E00E942B0FCB010895B2
:101F9A00992777FD05C005900D920197E1F70895FD
:0A1FAA0001900D920197E1F70895F0
:101FB40090BD89B98AB188698AB98BB182608BB9BD
:081FC40080B58E6880BD089510
:101FCC000F931F9389019A01462F6FEF7FE70E94B1
:081FDC00510B1F910F910895B4
:101FE4000024A7FD00942A1730054005500560051C
:081FF4007005800590050895B9
:101FFC00982F92959F70990F292F220F220F920FD5
:06200C008F70890F08959A
:10201200EC010E9495100E949410CE010E9496102D
:06202200CE010E949210A5
:1020280081B38F7781BB8799FECF879BFECF879936
:04203800FECF08953A
:10203C0061E00E94020F8FE19EE40197F1F700C06E
:04204C0000000895F3
:1020500090E4699F800D112460E080680E94020F67
:022060000895E1
:1020620060918A0070918B0080918C0090918D001C
:022072000895CF
:10207400FC01480F591FE417F50711F06193FBCFDA
:022084000895BD
:102086009C01215631092A31310510F48F759927A3
:022096000895AB
:102098008BE083BF89B7826089BF8DE78CBF0895C5
:1020A8009C01215431092A31310508F480620895D0
:0E20B80083B984E886BF06B607FEFDCF089503
:0E20C60084EC86BF06B607FEFDCF83B10895F9
:0E20D40084E886BF06B607FEFDCF83B10895EF
:0E20E20087B3886087BB12BE8BE683BF08956C
:0C20F00084EA86BF06B607FEFDCF089507
:0A20FC009BBD8ABD79BD68BD089543
:082106005D9BFECF8CB908952A
:06210E0080E280B9089593
:0621140084E986BF089576
:06211A0080E090E0089552
:042120000C9400001B
:042124000E945500C0
:02212800089518
:02212A00089516
:02212C00089514
:00000001FF
