:100000000C942A000C94D2010C9447000C944700E5
:100010000C9447000C9447000C9447000C94470044
:100020000C9447000C9447000C9447000C94060273
:100030000C9447000C9447000C9447000C94470024
:100040000C9447000C9447000C9447000C949E01BC
:100050000C94470011241FBECFE5D4E0DEBFCDBF16
:1000600011E0A0E6B0E0E4E3F2E102C005900D92F9
:10007000AA32B107D9F721E0AAE2B1E001C01D928E
:10008000AE37B207E1F70E94A5040C9418090C944E
:10009000000084B38F7884BB85B3806785BB8E9A5C
:1000A000969A089580916000875E809360008091A9
:1000B00060008E3610F0109260008091600090E039
:1000C0000E9454038CBF0895E82FF0E0E65DFE4FD8
:1000D0009081992321F0913019F110820AC023B345
:1000E00030E0082E02C0359527950A94E2F720FFEC
:1000F00003C090E080E00895AFE3BCE91197F1F709
:1001000000C0000023B330E002C0359527958A95E2
:10011000E2F720FDEECF81E0808381E090E008955A
:1001200023B330E0082E02C0359527950A94E2F7F4
:1001300020FFDFCFAFE3BCE91197F1F700C000006B
:1001400023B330E002C0359527958A95E2F720FF6A
:10015000D0CFC3CF86E00E946400892B11F00E94AB
:10016000520084E00E946400892B21F082B390E465
:10017000892782BB089584B38C7F84BB80E280B9D9
:10018000089580EA96E8A1E0B0E08093570190934B
:100190005801A0935901B0935A0184EA86BF06B66C
:1001A00007FE03C081E090E008958091570190918F
:1001B0005801A0915901B0915A010197A109B109C3
:1001C0008093570190935801A0935901B0935A011D
:1001D000892B8A2B8B2B19F790E080E0089584E916
:1001E00086BF089583B984E886BF06B607FEFDCFB3
:1001F000089584EC86BF06B607FEFDCF83B108954F
:1002000084E886BF06B607FEFDCF83B108956AE095
:100210000E948105292F30E1839FC0011124822B88
:100220000895982F92959F708F702AE0929F800D6D
:1002300011240895CF936AE00E948105C92F805D43
:100240000E946A0480E38C0FCF910C946A04CF93D0
:10025000DF93C82FD62F0E94C10080ED0E94F200CC
:1002600080E00E94F20080E00E94F2008D2F0E9448
:1002700007010E94F2008C2F0E9407010E94F200E9
:10028000DF91CF910C94EF00CF93DF93C82FD62F3F
:100290000E94C100892B09F446C080ED0E94F20043
:1002A00080E00E94F2000E94EF000E94C10081EDF8
:1002B0000E94F2000E94F90080935D010E94F90003
:1002C00080935C010E94000180935B010E94EF001B
:1002D00080915D010E94110180935D0180915C011C
:1002E0000E94110180935C0180915B010E941101C9
:1002F00080935B016D2F8C2F0E94740480915B01B1
:100300000E941A018AE30E946A0480915C010E94A3
:100310001A018AE30E946A0480915D010E941A0119
:10032000DF91CF91089590E080E0FACF8BE083BF1A
:1003300089B7826089BF8DE78CBF08951F920F92A5
:100340000FB60F9211248F939F93AF93BF93809119
:10035000320190913301A0913401B09135010196A1
:10036000A11DB11D8093320190933301A0933401FC
:10037000B0933501BF91AF919F918F910F900FBEB8
:100380000F901F9018956091320170913301809108
:10039000340190913501089582E085BF8BB7806468
:1003A0008BBF08951F920F920FB60F9211248F9357
:1003B0009F93AF93BF938091370190913801A091A3
:1003C0003901B0913A010196A11DB11D8093370109
:1003D00090933801A0933901B0933A0181E0809362
:1003E0003601BF91AF919F918F910F900FBE0F90EB
:1003F0001F90189590BD89B988E98AB9599A86E8FD
:1004000080BD08955D9BFECF8CB908951F920F9219
:100410000FB60F9211248F93EF93FF93CF93DF9337
:100420001F92CDB7DEB719828CB1898389818D3057
:1004300021F080913B018F31B0F0E0913B01F0E081
:10044000E25AFE4F108210923B0181E080933C0102
:100450000F90DF91CF91FF91EF918F910F900FBE91
:100460000F901F901895E0913B01F0E08981E25ACE
:10047000FE4F808380913B018F5F80933B01E8CFEB
:10048000CF93DF93EC018991811103C0DF91CF916C
:1004900008950E940202F7CFEF92FF920F931F93ED
:1004A000CF93DF93CDB7DEB7A0970FB6F894DEBF3A
:1004B0000FBECDBF80913C01882309F4BCC045E04C
:1004C00050E065E870E08EE591E00E940306892B1C
:1004D000D1F40E9478039F938F938BE890E09F93D1
:1004E0008F938E010F5F1F4F1F930F930E94400643
:1004F000C8010E94400210923C010F900F900F9093
:100500000F900F900F9044E050E067EA70E08EE5A6
:1005100091E00E940306892B09F580915D011F92ED
:100520008F9380915C011F928F9380915B011F924A
:100530008F938CEA90E09F938F938E010F5F1F4FF4
:100540001F930F930E944006C8010E944002109220
:100550003C010FB6F894DEBF0FBECDBF42E050E0C5
:100560006AEC70E08EE591E00E940306892BE9F5C4
:1005700067E271E08EE591E00E94F5056DEC70E0B8
:1005800090E080E00E94F5058C016DEC70E090E059
:1005900080E00E94F5057C01C8010E94D705182F54
:1005A000092FC7010E94D705F82EE92E682F792F51
:1005B000812F902F0E942701EF92FF920F931F939C
:1005C0008FEC90E09F938F938E010F5F1F4F1F93CF
:1005D0000F930E944006C8010E94400210923C0105
:1005E0000FB6F894DEBF0FBECDBF43E050E067EE1C
:1005F00070E08EE591E00E940306892BA1F567E289
:1006000071E08EE591E00E94F5056DEC70E090E000
:1006100080E00E94F5058C016BEE70E00E94FA0507
:10062000892BB1F0969A8EEE90E00E9440021092D3
:100630003C0110923C01A0960FB6F894DEBF0FBEAD
:10064000CDBFDF91CF911F910F91FF90EF90089553
:1006500067E071E0C8010E94FA05892B41F3969882
:100660008BE091E0E2CF83E291E00E9440028EE5D0
:1006700091E00E94400281E790E00E944002D9CFC1
:100680009C01629FC001639F900D729F900D112489
:100690009C0150E040E060E072E18AE790E00E9457
:1006A000A105C901019708952FEFAC01249FC00156
:1006B000259F900D112464E670E00E948D05CB010A
:1006C00008959C0191B3906391BB1DBC1CBC82EA50
:1006D0008FBD8AE18EBD37BD26BD0895BB9A12BE7F
:1006E0008BE683BF08959BBD8ABD79BD68BD089523
:1006F00080913D018A3098F0E0913E01F0E0EE0FEC
:10070000FF1FEF5BFE4F80913F01909140012081E0
:100710003181821B930B9093400180933F01F894A9
:100720008091370190913801A0913901B0913A013F
:10073000E0913E01F0E0EE0FFF1FEF5BFE4F918373
:100740008083109237011092380110923901109273
:100750003A01789480913E01E82FF0E0EE0FFF1F00
:10076000EF5BFE4F4081518120913F01309140016C
:10077000240F351F3093400120933F018F5F8A3053
:1007800090F580933E0180913D018A3078F58F5F2E
:1007900080933D0145E0849FC0011124092E000C87
:1007A000AA0BBB0B8093610090936200A09363003F
:1007B000B09364008091650090916600289FB0011D
:1007C000299F700D389F700D112490E080E02091DA
:1007D00061003091620040916300509164000E947A
:1007E000A105C901089510923E01CDCF82E390E0AA
:1007F000A0E0B0E0D7CFDB9A95E89A95F1F700003A
:100800009BB39F709BBB9BB38295807F892B8BBBD7
:10081000DB9885E88A95F1F700000895CF93C82FFB
:1008200061110AC0DA988C2F82958F700E94FB03A9
:100830008C2FCF910C94FB03DA9AF5CF8EEF8ABB05
:100840001BBA8FE295E70197F1F700C0000083E043
:100850000E94FB038FE39FE10197F1F700C00000C6
:1008600083E00E94FB0387EC90E00197F1F700C062
:10087000000083E00E94FB038FEC97E00197F1F703
:1008800000C0000082E00E94FB038FEC97E001971C
:10089000F1F700C0000060E088E20E940E048FECD7
:1008A00097E00197F1F700C0000060E08CE00E9443
:1008B0000E048FEC97E00197F1F700C0000060E0B4
:1008C00086E00E940E048FEC97E00197F1F700C0DC
:1008D0000000089561E00E940E048FE19EE40197FC
:1008E000F1F700C0000008956295660F660F607C06
:1008F000860F60E080680C940E04CF93DF93EC01C8
:100900008991811103C0DF91CF9108950E946A04FB
:10091000F7CF0F931F93CF93DF938B0128E0829F34
:10092000C001112460E080640E940E04E801085FA9
:100930001F4F61E089910E940E04C017D107C9F7CB
:10094000DF91CF911F910F910895CF93DF93CDB792
:10095000DEB760970FB6F894DEBF0FBECDBF7894B8
:1009600087E690E00E94FA010E94BB000E94960177
:100970000E946E030E94CC010E941E040E94490046
:1009800087E690E00E94400268E070E080ED97E02A
:100990000E9440030E94610384E190E00E9454039E
:1009A000BC010E9473038FE6282E80E0382E8E0152
:1009B0000F5F1F4F80913601882329F160E080E0AE
:1009C0000E94740487E40E946A048091320190912D
:1009D0003301A0913401B091350184199509A6091C
:1009E000B7098C3B9240A105B10568F060E080E05A
:1009F0000E94740480E20E946A040E94C3012B01D9
:100A00003C01109236018091320190913301A09106
:100A10003401B09135018C199D09AE09BF09449785
:100A2000A105B10540F00E944C020E94AA000E945C
:100A3000C3016B017C018091320190913301A0913F
:100A40003401B091350188199909AA09BB098C3B79
:100A50009240A105B10520F170E060E084E090E0F3
:100A60000E9444018091370190913801A091390191
:100A7000B0913A01BF93AF939F938F933F922F9280
:100A80001F930F930E944006C8010E9440020E94DB
:100A9000C3014B015C010FB6F894DEBF0FBECDBFA2
:100AA0008091320190913301A0913401B0913501D0
:100AB0008C199D09AE09BF0988389341A105B1057C
:100AC00008F478CF0E9478039F938F9384E790E097
:100AD0009F938F931F930F930E94400661E086E0DF
:100AE0000E9474048AE790E00E947D040E94C30182
:100AF0006B017C010F900F900F900F900F900F9053
:100B000059CF991B79E004C0991F961708F0961BDE
:100B1000881F7A95C9F78095089597FB072E16F4DC
:100B2000009407D077FD09D00E94C30507FC05D0CB
:100B30003EF4909581959F4F0895709561957F4FF4
:100B40000895A1E21A2EAA1BBB1BFD010DC0AA1F0E
:100B5000BB1FEE1FFF1FA217B307E407F50720F026
:100B6000A21BB30BE40BF50B661F771F881F991FA1
:100B70001A9469F760957095809590959B01AC01EA
:100B8000BD01CF010895AA1BBB1B51E107C0AA1FDD
:100B9000BB1FA617B70710F0A61BB70B881F991F1E
:100BA0005A95A9F780959095BC01CD010895FC0157
:100BB00088279927E89421912032E9F3293010F011
:100BC0002E30C8F32B3241F02D3239F4689404C032
:100BD0000E943806820F911D219120532A30C0F3C4
:100BE0001EF4909581959F4F089545E551E00E9430
:100BF00011060895FB01DC018D910190801901100F
:100C0000D9F3990B0895FB01DC014150504030F0BD
:100C10008D910190801919F40020B9F7881B990B68
:100C20000895FA01A191B081009719F41097E1F0AD
:100C3000CD01DC01CD010D90002011F4C00113C0E5
:100C4000FB012191222319F02015D9F7F3CFFB01E5
:100C50002191201519F41E92119606C02223C1F786
:100C60000D900020A1F7D001FA01A193B08308955F
:100C70007AE0979F902D879F802D910D11240895E4
:100C8000AEE0B0E0E6E4F6E00C94EF080D891E89D2
:100C900086E08C831A8309838FEF9FE79E838D8381
:100CA000AE01475E5F4F6F89788DCE0101960E943D
:100CB00063062F813885020F131FF80110822E96CC
:100CC000E4E00C940B09ABE0B0E0E9E6F6E00C944C
:100CD000E1087C013B018A01FC01178216828381B5
:100CE00081FFC8C1CE0101965C01F7019381F30138
:100CF00093FD859193FF81913F01882309F453C1AE
:100D0000853239F493FD859193FF81913F018532BE
:100D100029F4B70190E00E945308E7CF912C212CD1
:100D2000312CFFE1F31538F08B3211F190F4803261
:100D300009F1833229F137FC3CC020ED280F2A301D
:100D400050F536FE20C08AE0989E200D1124922E88
:100D500006C08D3291F0803371F7689430F8F3015A
:100D600093FD859193FF81913F018111DACF21C0DD
:100D7000689431F8689432F8F2CF689433F8EFCF82
:100D8000689434F8ECCFEAE02E9E200D1124222E38
:100D9000689435F8E4CF8E3229F436FC04C16894A7
:100DA00036F8DDCF8C3619F4689437F8D8CF88360A
:100DB000B1F2982F9F7D95549330E0F08336A1F1E6
:100DC0008337C1F1833509F063C02801F2E04F0E8B
:100DD000511CF801C080D180692D70E036FC02C042
:100DE0006FEF7FEFC6010E943D084C01689437F811
:100DF00082010AC00C5F1F4FFFE3F98388248394AC
:100E0000912C6501E89437F833FE2DC0522C8114E3
:100E1000910471F5552009F468CFB70180E290E0A4
:100E20000E9453085A94F6CFF801808189830E5F9F
:100E30001F4FE4CF2801F2E04F0E511CF801C08093
:100E4000D180692D70E036FC02C06FEF7FEFC601E4
:100E50000E9448084C018201D5CFB70180E290E0A2
:100E60000E9453082A942814190409F0B0F7CECF31
:100E7000F60137FC859137FE81916F01B70190E053
:100E80000E94530851105A94F1E08F1A9108BFCF75
:100E9000843619F0893609F077C0F80137FE6BC047
:100EA00060817181828193810C5F1F4FF32DFF76EA
:100EB0003F2E97FF09C090958095709561957F4F63
:100EC0008F4F9F4F689437F82AE030E0A5010E94C9
:100ED0008308C82ECA188C2C432C36FE0CC0E8940C
:100EE00040F8C91440F434FE05C032FC03C0F32DB1
:100EF000FE7E4F2E892C44FE95C0FE01EC0DF11DA7
:100F00008081803309F087C0242D297E422E842DD4
:100F10008870582E43FC95C040FE8FC09C2C8214D4
:100F200018F42C0C922C981844FE91C0B70180E361
:100F300090E00E94530842FE09C088E790E041FE1D
:100F400002C088E590E0B7010E945308C91408F474
:100F50008AC0CA94D12C9FEFC91AD90ACA0CDB1CCB
:100F6000F60182916F01B70190E00E945308AC1422
:100F7000BD04B1F74FCF60817181072E000C880B43
:100F8000990B0E5F1F4F92CFD32CE894D4F82AE030
:100F900030E0853739F1232D297FD22E8F3601F1AC
:100FA00048F48835A9F0F701868197812B96E2E114
:100FB0000C94FD08803749F08837A9F7D4FE02C0A9
:100FC0006894D2F820E130E00DC06894D4F8F6CFF0
:100FD00034FE03C0822F8660D82E20E132E002C0AA
:100FE00028E030E0F801D7FE0FC060817181828176
:100FF00093810C5F1F4FA5010E948308C82ECA1859
:101000003D2CE89437F867CF6081718190E080E0F3
:101010000E5F1F4FF0CF42FC02C0839478CF8394C1
:10102000839475CF842D867809F471CFF6CFB701FC
:1010300080E290E00E94530883948214C0F3512C04
:1010400073CF522C5818821408F46ECFF8CF842D29
:10105000867809F47BCF8BE241FE80E247FC8DE28B
:10106000B70190E071CFB70180E390E00E94530890
:101070009A946CCF8FEF9FEF99CFFC010590615050
:1010800070400110D8F7809590958E0F9F1F08959E
:10109000FC016150704001900110D8F78095909547
:1010A0008E0F9F1F08950F931F93CF93DF93182FD9
:1010B000092FEB018B8181FD09C01FEF0FEF812FFD
:1010C000902FDF91CF911F910F91089582FF14C04F
:1010D0002E813F818C819D81281739073CF4E8815E
:1010E000F981CF0101969983888310838E819F8136
:1010F00001969F838E83E3CFE885F985812F09953B
:10110000892BA1F3DACFFA01AA27283051F1203137
:1011100081F1E8946F936E7F6E5F7F4F8F4F9F4F8B
:10112000AF4FB1E03ED0B4E03CD0670F781F891FCD
:101130009A1FA11D680F791F8A1F911DA11D6A0F9B
:10114000711D811D911DA11D20D009F468943F914E
:101150002AE0269F11243019305D3193DEF6CF014D
:101160000895462F4770405D4193B3E00FD0C9F713
:10117000F6CF462F4F70405D4A3318F0495D31FD80
:101180004052419302D0A9F7EACFB4E0A6959795D3
:10119000879577956795BA95C9F7009761057105A9
:1011A00008959B01AC010A2E0694579547953795F3
:1011B0002795BA95C9F7620F731F841F951FA01D4D
:1011C00008952F923F924F925F926F927F928F92EB
:1011D0009F92AF92BF92CF92DF92EF92FF920F93C6
:1011E0001F93CF93DF93CDB7DEB7CA1BDB0B0FB6D0
:1011F000F894DEBF0FBECDBF09942A88398848888D
:101200005F846E847D848C849B84AA84B984C88422
:10121000DF80EE80FD800C811B81AA81B981CE0F19
:10122000D11D0FB6F894DEBF0FBECDBFED010895FE
:04123000F894FFCF60
:10123400320100000022005541525420454E002541
:10124400640D0A002564207552006E756D5F676D2C
:101254005F636E740067616D6D61001B5B303B33CF
:10126400316D2047616D6D613A20256420755220EF
:101274001B5B306D0D0A0074696D65001B5B313BAF
:1012840033336D20253032643A253032643A2530C8
:101294003264201B5B306D0D0A007374002C0073E4
:1012A40065742074696D65202D3E20253032643AC2
:1012B400253032640D0A00736E64006F6E001B5B90
:1012C400303B33316D20536F756E64204F4646209A
:1012D4001B5B306D0D0A006F6666001B5B303B3391
:1012E400326D20536F756E64204F4E201B5B306D42
:0A12F4000D0A004745543A2000009F
:00000001FF
