:100000000C942A000C949C010C9447000C9447001B
:100010000C9447000C9447000C9447000C94470044
:100020000C9447000C9447000C9447000C94F30187
:100030000C9447000C9447000C9447000C94470024
:100040000C9447000C9447000C9447000C94BF009C
:100050000C94470011241FBECFE5D4E0DEBFCDBF16
:1000600010E0A0E6B0E0E4E8FEE002C005900D92EA
:10007000A637B107D9F720E0A6E7B0E001C01D928E
:10008000A73CB207E1F70E9422030C9440070C94AE
:10009000000080E884BB85B3806E85BB08958091A5
:1000A0006000909161004996909361008093600098
:1000B00080916000909161008E36910524F010923D
:1000C00061001092600008950F931F9323B3E82FEF
:1000D000F0E030E0082E02C0359527950A94E2F74B
:1000E00020FD34C040919600509197006091980097
:1000F00070919900EE0FFF1FEE0FFF1FEA58FF4FA0
:100100000081118122813381401B510B620B730BE3
:100110004431510561057105C8F023B330E002C0D8
:10012000359527958A95E2F720FD10C080919600BD
:1001300090919700A0919800B0919900808391834D
:10014000A283B38381E01F910F91089580E0FBCFDC
:1001500086E00E946400882319F085B3805885BB2F
:1001600085E00E94640081110C944F0008958BE09B
:1001700083BF89B7826089BF8DE78CBF08951F92C6
:100180000F920FB60F9211248F939F93AF93BF934B
:100190008091960090919700A0919800B09199005D
:1001A0000196A11DB11D8093960090939700A09396
:1001B0009800B0939900BF91AF919F918F910F904C
:1001C0000FBE0F901F901895609196007091970048
:1001D0008091980090919900089580E280B90895E7
:1001E00084EA86BF06B607FEFDCF089584E986BF80
:1001F000089583B984E886BF06B607FEFDCF08954B
:1002000084EC86BF06B607FEFDCF83B1089584E86F
:1002100086BF06B607FEFDCF83B108956AE00E944F
:100220001204292F30E1839FC0011124822B0895ED
:10023000982F92959F708F702AE0929F800D1124C5
:100240000895CF93DF93C62FD22F80E280B90E940A
:10025000F00080ED0E94F90080E00E94F90080E04B
:100260000E94F9008D2F0E940E010E94F9008C2F30
:100270000E940E010E94F90084E986BFDF91CF91B0
:100280000895CF936AE00E941204C92F805D0E94F6
:10029000E70280E38C0FCF910C94E7021F93CF937A
:1002A000DF93D82F162F80E280B90E94F00080EDF6
:1002B0000E94F90080E00E94F900C4E9C6BF0E94D4
:1002C000F00081ED0E94F9000E9400018093A600D9
:1002D0000E9400018093A5000E9407018093A40062
:1002E000C6BF8091A6000E9418018093A60080914D
:1002F000A5000E9418018093A5008091A4000E948F
:1003000018018093A400612F8D2F0E94F10280912B
:10031000A4000E9441018AE30E94E7028091A500A7
:100320000E9441018AE30E94E7028091A600DF91CA
:10033000CF911F910C9441011F920F920FB60F9213
:1003400011242F933F934F935F938F939F93EF933A
:10035000FF9381E08093A100E0919B00F0E0E456E0
:10036000FF4F20919A0081E090E0AC0102C0440F61
:10037000551F2A95E2F78081842B8083FF91EF91AE
:100380009F918F915F914F913F912F910F900FBE51
:100390000F901F901895FC01BC016B5F7F4F90E0A0
:1003A00080E0419150E030E020E0DA01022E02C00E
:1003B000B595A7950A94E2F7A0FD01962F5F3F4FF0
:1003C0002830310591F7E617F70759F7089590BDE2
:1003D00089B988E98AB9599A86E880BD08955D9BF4
:1003E000FECF8CB908951F920F920FB60F92112471
:1003F0008F93EF93FF93CF93DF931F92CDB7DEB729
:1004000019828CB1898389818D3021F08091A2007D
:100410008F31B0F0E091A200F0E0E955FF4F10827B
:100420001092A20081E08093A3000F90DF91CF9102
:10043000FF91EF918F910F900FBE0F901F90189525
:10044000E091A200F0E08981E955FF4F808380911F
:10045000A2008F5F8093A200E8CFCF93DF93EC01DF
:100460008991811103C0DF91CF9108950E94EF011E
:10047000F7CF87EA90E00E942D021092A300089522
:100480009C01629FC001639F900D729F900D11248B
:100490009C0150E040E060E072E18AE790E00E9459
:1004A0003204C901019708959C0191B3906391BBF7
:1004B0001DBC1CBC82EA8FBD8AE18EBD37BD26BD46
:1004C0000895BB9A12BE8BE683BF08959BBD8ABD7B
:1004D00079BD68BD08952FEFAC01249FC001259F11
:1004E000900D112464E670E00E941E04CB01089573
:1004F000DB9A95E89A95F1F700009BB39F709BBB40
:100500009BB38295807F892B8BBBDB9885E88A958E
:10051000F1F700000895CF93C82F61110AC0DA984F
:100520008C2F82958F700E9478028C2FCF910C9423
:100530007802DA9AF5CF8EEF8ABB1BBA8FE295E785
:100540000197F1F700C0000083E00E9478028FE37A
:100550009FE10197F1F700C0000083E00E9478025C
:1005600087EC90E00197F1F700C0000083E00E9463
:1005700078028FEC97E00197F1F700C0000082E06D
:100580000E9478028FEC97E00197F1F700C000001D
:1005900060E088E20E948B028FEC97E00197F1F710
:1005A00000C0000060E08CE00E948B028FEC97E0BE
:1005B0000197F1F700C0000060E086E00E948B0226
:1005C0008FEC97E00197F1F700C00000089561E01B
:1005D0000E948B028FE19EE40197F1F700C00000BA
:1005E00008956295660F660F607C860F60E08068F4
:1005F0000C948B02CF93DF93EC018991811103C09E
:10060000DF91CF9108950E94E702F7CF0F931F93D8
:10061000CF93DF938B0128E0829FC001112460E01B
:1006200080640E948B02E801085F1F4F61E089919E
:100630000E948B02C017D107C9F7DF91CF911F919C
:100640000F910895CF93DF9300D000D01F92CDB7C4
:10065000DEB778940E94B7000E94ED000E94490026
:100660000E949B0287E690E00E94E70182E690E00C
:100670000E942D0282E085BF8BB780648BBF68E04B
:1006800070E080ED97E00E9440020E94540282E3F5
:1006900090E00E946B02BC010E9466020E9461020F
:1006A00085E0E0E7F0E08E010F5F1F4FD801019079
:1006B0000D928A95E1F7412C512C3201812C912C1D
:1006C0005401C12CD12C76018AE6282E80E0382EE8
:1006D0000E94A80080916000909161000E946B02CE
:1006E0008CBF8091960090919700A0919800B09156
:1006F000990088199909AA09BB09843F9140A1056D
:10070000B10550F070E060E084E090E00E944E019E
:100710000E94E4004B015C018091A100882351F10B
:1007200060E080E00E94F10287E40E94E70261E05D
:1007300086E00E94F1028CE990E00E94CB019F9339
:100740008F933F922F921F930F930E946804C801CA
:100750000E94FA0261E088E00E94F1028DE690E0DA
:100760000E94FA021092A1000F900F900F900F902C
:100770000F900F908091960090919700A091980013
:10078000B09199008C199D09AE09BF09883E93402C
:10079000A105B10558F060E080E00E94F10280E21E
:1007A0000E94E7020E94E4006B017C0180919600A8
:1007B00090919700A0919800B091990084199509A3
:1007C000A609B709883E9340A105B10508F480CF7A
:1007D0000E94E4002B013C0180919A008F5F80937E
:1007E0009A00883058F080919B008F5F80939B0027
:1007F00010929A00853010F010929B00E0919B00BF
:10080000F0E0E456FF4F80919A0021E030E002C012
:10081000220F331F8A95E2F7C901809590818923C1
:10082000808356CF991B79E004C0991F961708F072
:10083000961B881F7A95C9F78095089597FB072E18
:1008400016F4009407D077FD09D00E94540407FCE9
:1008500005D03EF4909581959F4F089570956195D0
:100860007F4F0895A1E21A2EAA1BBB1BFD010DC0EC
:10087000AA1FBB1FEE1FFF1FA217B307E407F50750
:1008800020F0A21BB30BE40BF50B661F771F881F2C
:10089000991F1A9469F760957095809590959B01C2
:1008A000AC01BD01CF010895AA1BBB1B51E107C0DC
:1008B000AA1FBB1FA617B70710F0A61BB70B881FF0
:1008C000991F5A95A9F780959095BC01CD0108957F
:1008D000AEE0B0E0EEE6F4E00C9417070D891E8957
:1008E00086E08C831A8309838FEF9FE79E838D8335
:1008F000AE01475E5F4F6F89788DCE0101960E94F1
:100900008B042F813885020F131FF80110822E9659
:10091000E4E00C943307ABE0B0E0E1E9F4E00C94E0
:1009200009077C013B018A01FC0117821682838141
:1009300081FFC8C1CE0101965C01F7019381F301EB
:1009400093FD859193FF81913F01882309F453C161
:10095000853239F493FD859193FF81913F01853272
:1009600029F4B70190E00E947B06E7CF912C212C5F
:10097000312CFFE1F31538F08B3211F190F4803215
:1009800009F1833229F137FC3CC020ED280F2A30D1
:1009900050F536FE20C08AE0989E200D1124922E3C
:1009A00006C08D3291F0803371F7689430F8F3010E
:1009B00093FD859193FF81913F018111DACF21C091
:1009C000689431F8689432F8F2CF689433F8EFCF36
:1009D000689434F8ECCFEAE02E9E200D1124222EEC
:1009E000689435F8E4CF8E3229F436FC04C168945B
:1009F00036F8DDCF8C3619F4689437F8D8CF8836BE
:100A0000B1F2982F9F7D95549330E0F08336A1F199
:100A10008337C1F1833509F063C02801F2E04F0E3E
:100A2000511CF801C080D180692D70E036FC02C0F5
:100A30006FEF7FEFC6010E9465064C01689437F89E
:100A400082010AC00C5F1F4FFFE3F983882483945F
:100A5000912C6501E89437F833FE2DC0522C811497
:100A6000910471F5552009F468CFB70180E290E058
:100A70000E947B065A94F6CFF801808189830E5F2D
:100A80001F4FE4CF2801F2E04F0E511CF801C08047
:100A9000D180692D70E036FC02C06FEF7FEFC60198
:100AA0000E9470064C018201D5CFB70180E290E030
:100AB0000E947B062A942814190409F0B0F7CECFBF
:100AC000F60137FC859137FE81916F01B70190E007
:100AD0000E947B0651105A94F1E08F1A9108BFCF03
:100AE000843619F0893609F077C0F80137FE6BC0FB
:100AF00060817181828193810C5F1F4FF32DFF769E
:100B00003F2E97FF09C090958095709561957F4F16
:100B10008F4F9F4F689437F82AE030E0A5010E947C
:100B2000AB06C82ECA188C2C432C36FE0CC0E89499
:100B300040F8C91440F434FE05C032FC03C0F32D64
:100B4000FE7E4F2E892C44FE95C0FE01EC0DF11D5A
:100B50008081803309F087C0242D297E422E842D88
:100B60008870582E43FC95C040FE8FC09C2C821488
:100B700018F42C0C922C981844FE91C0B70180E315
:100B800090E00E947B0642FE09C088E790E041FEAB
:100B900002C088E590E0B7010E947B06C91408F402
:100BA0008AC0CA94D12C9FEFC91AD90ACA0CDB1C7F
:100BB000F60182916F01B70190E00E947B06AC14B0
:100BC000BD04B1F74FCF60817181072E000C880BF7
:100BD000990B0E5F1F4F92CFD32CE894D4F82AE0E4
:100BE00030E0853739F1232D297FD22E8F3601F160
:100BF00048F48835A9F0F701868197812B96E2E1C8
:100C00000C942507803749F08837A9F7D4FE02C035
:100C10006894D2F820E130E00DC06894D4F8F6CFA3
:100C200034FE03C0822F8660D82E20E132E002C05D
:100C300028E030E0F801D7FE0FC060817181828129
:100C400093810C5F1F4FA5010E94AB06C82ECA18E6
:100C50003D2CE89437F867CF6081718190E080E0A7
:100C60000E5F1F4FF0CF42FC02C0839478CF839475
:100C7000839475CF842D867809F471CFF6CFB701B0
:100C800080E290E00E947B0683948214C0F3512C92
:100C900073CF522C5818821408F46ECFF8CF842DDD
:100CA000867809F47BCF8BE241FE80E247FC8DE23F
:100CB000B70190E071CFB70180E390E00E947B061E
:100CC0009A946CCF8FEF9FEF99CFFC010590615004
:100CD00070400110D8F7809590958E0F9F1F089552
:100CE000FC016150704001900110D8F780959095FB
:100CF0008E0F9F1F08950F931F93CF93DF93182F8D
:100D0000092FEB018B8181FD09C01FEF0FEF812FB0
:100D1000902FDF91CF911F910F91089582FF14C002
:100D20002E813F818C819D81281739073CF4E88111
:100D3000F981CF0101969983888310838E819F81E9
:100D400001969F838E83E3CFE885F985812F0995EE
:100D5000892BA1F3DACFFA01AA27283051F12031EB
:100D600081F1E8946F936E7F6E5F7F4F8F4F9F4F3F
:100D7000AF4FB1E03ED0B4E03CD0670F781F891F81
:100D80009A1FA11D680F791F8A1F911DA11D6A0F4F
:100D9000711D811D911DA11D20D009F468943F9102
:100DA0002AE0269F11243019305D3193DEF6CF0101
:100DB0000895462F4770405D4193B3E00FD0C9F7C7
:100DC000F6CF462F4F70405D4A3318F0495D31FD34
:100DD0004052419302D0A9F7EACFB4E0A695979587
:100DE000879577956795BA95C9F70097610571055D
:100DF00008959B01AC010A2E0694579547953795A7
:100E00002795BA95C9F7620F731F841F951FA01D00
:100E100008952F923F924F925F926F927F928F929E
:100E20009F92AF92BF92CF92DF92EF92FF920F9379
:100E30001F93CF93DF93CDB7DEB7CA1BDB0B0FB683
:100E4000F894DEBF0FBECDBF09942A883988488840
:100E50005F846E847D848C849B84AA84B984C884D6
:100E6000DF80EE80FD800C811B81AA81B981CE0FCD
:100E7000D11D0FB6F894DEBF0FBECDBFED010895B2
:040E8000F894FFCF14
:100E84004B005541525420454E00256400755200D4
:060E940030302F6E00005B
:00000001FF
